:020000040800F2
:10000000D00C0020490200081D4B0008994400084C
:10001000194B0008F9050008B9520008000000005B
:100020000000000000000000000000003F4C00083D
:10003000D1070008000000003D4C0008414C0008BA
:1000400063020008630200086302000863020008FC
:1000500063020008630200086302000863020008EC
:1000600063020008630200086302000859070008E1
:1000700069070008630200086302000863020008C1
:1000800063020008790700086302000863020008A1
:1000900041060008630200086302000863020008CA
:1000A000630200086302000863020008630200089C
:1000B000FD4C000863020008000000006302000815
:1000C0006302000800000000000000006302000856
:1000D00000000000630200086302000863020008D9
:1000E0006302000863020008000000000000000036
:1000F0000000000000000000000000000000000000
:1001000000000000000000000000000000000000EF
:100110000000000000000000630200086302000805
:1001200000000000000000000000000000000000CF
:1001300000000000000000000000000000000000BF
:100140006302000863020008000000006302000868
:1001500063020008630200086302000863020008EB
:1001600063020008630200080000000000000000B5
:10017000000000000000000000000000000000007F
:10018000000000006302000800F002F800F04CF8E4
:100190000AA090E8000C82448344AAF10107DA45E2
:1001A00001D100F041F8AFF2090EBAE80F0013F0E8
:1001B000010F18BFFB1A43F001031847546B0000EE
:1001C000746B00000A4410F8014B14F00F0508BFCF
:1001D00010F8015B240908BF10F8014B6D1E05D013
:1001E00010F8013B6D1E01F8013BF9D1641E03D0EC
:1001F000641E01F8015BFBD19142E4D3704700001B
:100200000023002400250026103A28BF78C1FBD81F
:10021000520728BF30C148BF0B6070471FB506F0BA
:1002200050FD1FBD10B510BD00F0D4F81146FFF70A
:10023000F5FF05F0E9FF00F0F2F803B4FFF7F2FF75
:1002400003BC00F0F5F80000094880470948004762
:10025000FEE7FEE7FEE7FEE7FEE7FEE7FEE7FEE776
:10026000FEE7FEE704480549054A064B70470000D3
:10027000E94C000889010008D0060020D00C0020BD
:10028000D0080020D008002053EA020C00F069805A
:100290002DE9F04B4FF00006002B1FBFB3FA83F59A
:1002A00003FA05F424FA05F65E4012BF1643B2FACB
:1002B00082F502FA05F4C5F120051EBF22FA05FCFD
:1002C00044EA0C04203556EA044C4FEA144418BFA3
:1002D000641C4FF000084FF00009904271EB030CD2
:1002E00039D3002919BFB1FA81F701FA07F6B0FA3C
:1002F00080F700FA07F6C7F120071EBF20FA07FCB7
:1003000046EA0C062037B6FBF4FCA7EB0507103FC6
:1003100007F01F0BCBF120060CFA0BFB2CFA06F6AC
:1003200044BFB3460026202FA4BF5E464FF0000B0B
:100330005BEA060C08BF4FF0010B19EB0B09ABFB96
:10034000027C48EB0608C01B06FB02CC0BFB03CC6F
:1003500071EB0C01C1E70B46024641464846BDE839
:10036000F08B13B54FF000004FF00001AFF30080A9
:10037000BDE81C4070474FF0000200B5134694469C
:100380009646203922BFA0E80C50A0E80C50B1F1ED
:100390002001BFF4F7AF090728BFA0E80C5048BF01
:1003A0000CC05DF804EB890028BF40F8042B08BF9F
:1003B000704748BF20F8022B11F0804F18BF00F89B
:1003C000012B704770477047704700000048704726
:1003D0006C0600207546FFF7F9FFAE46050069463A
:1003E000534620F00700854618B020B5FFF73AFFC6
:1003F000BDE820404FF000064FF000074FF0000826
:100400004FF0000B21F00701AC46ACE8C009ACE8A6
:10041000C009ACE8C009ACE8C0098D46704710B50A
:100420000446AFF300802046BDE81040FFF705BF4B
:1004300001491820ABBEFEE726000200704770B5E8
:1004400005466C6A206C00F05000D0B9206C40F476
:10045000007020642068C06800F4406068B9607E65
:1004600058B9206C20F480702064206C00F4805017
:1004700018B9206C40F001002064204600F0B6FC62
:1004800003E0A06B016B2846884770BD70B5054638
:100490006C6A206C40F040002064606C40F0040006
:1004A0006064204600F0A4FC70BD70B50446656A27
:1004B000284600F09CFC70BD70B5044600252068FD
:1004C000806800F00300012806D12068006800F071
:1004D000010008B1012000E0002000283BD0206886
:1004E000806800F00D00012800D100E0002050B12C
:1004F00000BF2068806840F0020021688860032007
:100500002168086009E0206C40F010002064606CF5
:1005100040F001006064012070BD01F085FD0546DA
:1005200013E001F081FD401B02280ED9206880688D
:1005300000F0010048B1206C40F010002064606CB5
:1005400040F0010060640120E6E72068806800F068
:1005500001000028E5D10020DEE7000070B5044668
:1005600000252068806800F00300012806D120687B
:10057000006800F0010008B1012000E0002080BB0D
:10058000206880681B49084008B9012000E000206D
:1005900048B9206C40F010002064606C40F001000D
:1005A0006064012070BD2068806840F0010021680F
:1005B000886001F039FD054614E001F035FD401B6F
:1005C00002280FD92068006800F0010050B9206CA3
:1005D00040F010002064606C40F001006064012075
:1005E000E0E705E02068006800F001000028E4D0A2
:1005F0000020D7E73F00008000BFFEE70021016038
:1006000041608160C1600161416181610121C1611D
:10061000016200214162704700B58BB001A8FFF76D
:10062000EDFF01A9054800F06BFF0221034800F02F
:10063000A7FE024801F0E3FA0BB000BDB4030020AE
:1006400010B5024801F09FF810BD0000B40300206F
:1006500030B589B005460C46009500200290039005
:10066000082004902088000A8DF8180021788DF861
:1006700019106088010A8DF81A10A1788DF81B10E6
:10068000A088010A8DF81C1021798DF81D10E088D2
:10069000010A8DF81E10A1798DF81F1008AB06AA6B
:1006A0006946044800F081FE10B1012009B030BD58
:1006B0000020FBE7B40300202E280CD14A780B78E9
:1006C00042EA0322224B1A801A4612883C2A3ADD5B
:1006D00000221A8037E02F2835D14A780B7842EA79
:1006E00003221B4B5A80CA788B7842EA032212B24B
:1006F000174B9A804A790B7942EA0322144BDA802D
:10070000CA798B7942EA0322114B1A811A46528820
:10071000782A01DD78225A800D4AB2F90420B2F518
:10072000967F05DC0A4AB2F9042012F1780F03DA49
:100730004FF49672064B9A80054AD288962A02DDBB
:100740009622034BDA800022024B1A6170470000A8
:10075000000600203000002010B5024801F085FAA4
:1007600010BD0000E402002010B5024801F07DFA3F
:1007700010BD00002803002010B5024801F075FAF2
:1007800010BD0000BC050020054A0168891A14222A
:10079000B1FBF2F18900016401490839C163704776
:1007A0000800024030B590F840500124AC40C56BC1
:1007B0006C60046863604468102C04D10468A26013
:1007C0000468E16003E00468A1600468E26030BD91
:1007D000704772B600BFFEE72DE9F04104460E46B1
:1007E000002700BF94F83C00012802D10220BDE898
:1007F000F081012084F83C0000BF2046FFF75CFE3A
:10080000074697BB012020642068806820F0804064
:1008100021688860012E05D12068806840F0804002
:10082000216888602068806840F000402168886006
:1008300001F0FAFB054619E001F0F6FB401B0A281F
:1008400014D92068806800F00040B0F1004F0DD14D
:10085000206C20F0020040F01000206400BF002057
:1008600084F83C0000BF0120C1E70CE020688068EC
:1008700000F00040B0F1004FDED0206C20F002000C
:1008800040F00100206400BF002084F83C0000BF5D
:100890003846ACE770B594B002460B4600241868A1
:1008A00000B100BF1068B0F1A04F02D146480090DF
:1008B00002E04FF0A0400090009810B9012014B061
:1008C00070BD00BF92F83C00012801D10220F6E77C
:1008D000012082F83C0000BF10688068C0F38000EF
:1008E000002864D100988068C0F3800000285ED1A1
:1008F0003649186890B392F830005D6845EA403098
:100900008D6825F46045284388601068806800F091
:100910000300012806D11068006800F0010008B14A
:10092000012000E00020002846D10098806800F0F7
:100930000300012806D10098006800F0010008B10A
:10094000012000E0002088BB9D68186828438D685E
:1009500040F61F76B543284388602DE0FFE788689E
:1009600020F4604088601068806800F0030001286F
:1009700006D11068006800F0010008B1012000E015
:10098000002098B90098806800F00300012806D183
:100990000098006800F0010008B1012000E000208C
:1009A00020B9886840F61F75A843886004E0106C81
:1009B00040F020001064012400BF002082F83C00B9
:1009C00000BF20467BE700000001005000030050FC
:1009D000F0B595B00246002500200090C8680128B7
:1009E00000D000E000BF00BF92F83C00012802D117
:1009F000022015B0F0BD012082F83C0000BF106855
:100A00008068C0F38000002879D14868052812D298
:100A10001068006B0E7906EB460677001F26BE4075
:100A2000B0430F7907EB47077F000E68BE403043A5
:100A30001668306343E048680A2814D21068406B97
:100A40000E79761F06EB460677001F26BE40B043A0
:100A50000F797F1F07EB47077F000E68BE403043CA
:100A6000166870632BE048680F2814D21068806BFA
:100A70000E790A3E06EB460677001F26BE40B043BD
:100A80000F790A3F07EB47077F000E68BE403043EF
:100A90001668B06313E01068C06B0E790F3E06EB6A
:100AA000460677001F26BE40B0430F790F3F07EB85
:100AB00047077F000E68BE4030431668F063106839
:100AC000806800F00C0008B1012000E00020002840
:100AD00070D108680A2813D3106880690E780A3E1E
:100AE00006EB46070726BE40B0430F780A3F07EBE8
:100AF00047078E68BE4030431668B06110E05FE182
:100B0000106840690E7806EB46070726BE40B043E2
:100B10000F7807EB47078E68BE4030431668706158
:100B200048691668F668C6F3C106760000FA06F44E
:100B30000869012806D0022812D003281ED00428F4
:100B400039D129E01068006EA34E30400E784FF086
:100B5000004747EA8666264330431668306663E0FE
:100B60001068406E9C4E30400E784FF0004747EAC8
:100B70008666264330431668706655E01068806EBE
:100B8000954E30400E784FF0004747EA8666264380
:100B900030431668B06647E01068C06E8E4E304035
:100BA0000E784FF0004747EA8666264330431668C2
:100BB000F06639E039E01068006E00F0F8400E7819
:100BC000B0EB866F05D11068006E20F0004016680B
:100BD00030661068406E00F0F8400E78B0EB866F1B
:100BE00005D11068406E20F00040166870661068ED
:100BF000806E00F0F8400E78B0EB866F05D110687B
:100C0000806E20F000401668B0661068C06E00F07C
:100C1000F8400E78B0EB866F05D11068C06E20F0FA
:100C200000401668F06600BF00BF1068806800F0E2
:100C30000300012806D11068006800F0010008B127
:100C4000012000E0002000287ED1C86801280AD0D9
:100C50001068D0F8B0000F780126BE40B043166887
:100C6000C6F8B00032E01068D0F8B0000F78012666
:100C7000BE4030431668C6F8B00008680A2813D38F
:100C8000106886690878093800EB40070720B840EB
:100C900026EA00000E78093E06EB46068F68B7404C
:100CA00038431668B06111E0106840690E78761C10
:100CB00006EB46070726BE40B0430F787F1C07EBC4
:100CC00047078E68BE40304316687061434B086822
:100CD000102803D1986800F4000070B1086811284A
:100CE00003D1986800F0807038B1086812286CD180
:100CF000986800F48000002867D11068B0F1A04F18
:100D000002D13748019002E04FF0A04001901068F6
:100D1000806800F00300012806D11068006800F028
:100D2000010008B1012000E0002070BB019880B1F3
:100D30000198806800F00300012808D1019800683C
:100D400000F0010018B100E033E0012000E00020D5
:100D5000D8B90868102819D11068B0F1A04F15D182
:100D6000986840F4000098601E4800681E4EB0FB72
:100D7000F6F000EB80004000009002E00098401E7A
:100D8000009000980028F9D11FE013E008681128AE
:100D900008D11068B0F1A04F04D1986840F080707D
:100DA000986012E0086812280FD1986840F480001B
:100DB00098600AE0106C40F020001064012504E007
:100DC000106C40F020001064012500BF002082F864
:100DD0003C0000BF28460CE600F0FF8300030050F3
:100DE000000100501000002040420F007047704783
:100DF00070470000F0B595B004460026002500209D
:100E0000009014B9012015B0F0BD206918B1202060
:100E1000005D00B100BF206C00F01000002853D12D
:100E2000206C98BB002060640021E164A06484F819
:100E30003C00204600F008F92068806800F08050EF
:100E400020BB2046FFF738FB0646206C00F0100060
:100E5000E0B9DEB9206C20F4885040F00200206434
:100E60002068806820F04050216888602068806891
:100E700040F08050216888606E4800686E49B0FB81
:100E8000F1F000EB80004000009003E005E00098E6
:100E9000401E009000980028F9D12068806800F07A
:100EA000805030B12068806800F00050B0F1005FE1
:100EB0000AD1206C20F0020040F010002064606C29
:100EC00040F0010060640126206C00F01000002852
:100ED00073D1002EFCD120688068C0F38000002808
:100EE000F6D1206C20F4807040F002002064534F53
:100EF0002068B0F1A04F02D15148019002E04FF0BC
:100F0000A04001902068806800F00300012806D10D
:100F10002068006800F0010008B1012000E0002016
:100F2000B0B9019870B10198806800F00300012801
:100F300006D10198006800F0010008B1012000E02E
:100F4000002028B9B86820F4403061680843B860D0
:100F5000606B012802D04FF4805100E00021607ED8
:100F600041EA4030E1680843A16808430543202076
:100F7000005D012813D1607E38B9A08C401E4FF46B
:100F8000803141EA4040054309E0206C20F0020036
:100F900040F020002064606C40F001006064A06AB2
:100FA000012803D0D4E90A0108430543206880687A
:100FB00000F00C0010B1012001E032E0002068B91F
:100FC0002068C06844F2020188432168C860207E1E
:100FD000810394F8300041EA400005432068C0686E
:100FE0001849084028432168C8602069012809D1B0
:100FF0002068006B20F00F00E169491E084321685A
:10100000086305E02068006B20F00F00216808638A
:1010100000206064206C20F0020040F00100206499
:1010200006E0206C20F0020040F010002064012651
:101030003046E8E61000002040420F000003005058
:101040000001005007C0F0FF10B586B0044614211F
:1010500001A8FFF790F92068B0F1A04F63D167486D
:101060000068401C654908600846006801280DD1E9
:1010700000BF6348406940F08050614948610846BC
:10108000406900F08050009000BF00BF00BF5C4886
:10109000406940F400305A4948610846406900F40C
:1010A0000030009000BF00BF00BF0846406940F418
:1010B000802048610846406900F48020009000BF0D
:1010C00000BF08200190032002900020039001A996
:1010D0004FF0904000F0CAFE42F201000190032060
:1010E00002900020039001A9464800F0BFFE464848
:1010F0004649086000204860002144488160802102
:10110000C1604900016189004161202181610902BA
:10111000C16100F01DFE08B1FFF75BFB00BF3B485B
:10112000A063446268E03A492068884264D1334849
:101130000068401C314908600846006801280DD14C
:1011400000BF2F48406940F080502D494861084653
:10115000406900F08050009000BF00BF00BF2848E9
:10116000406940F40030264948610846406900F46F
:101170000030009000BF00BF00BF0846406940F447
:10118000802048610846406900F48020009000BF3C
:1011900000BF10200190032002900020039001A9BD
:1011A0004FF0904000F062FE41F2040001900320F5
:1011B00002900020039001A9124800F057FE124847
:1011C00014301449086000204860002111488160F3
:1011D0008021C16049000161890041612021816154
:1011E0000902C16100F0B4FD08B1FFF7F2FA00BFD7
:1011F0000848A063446200BF06B010BD0000002094
:10120000001002400004004808000240E4020020F0
:1012100000010050280300202DE9F04104460D464E
:101220001646002720688068C0F3800000287DD122
:1012300000BF94F83C00012802D10220BDE8F081F3
:10124000012084F83C0000BF4848006800F01F00FF
:1012500000286CD12046FFF781F90746002F76D190
:10126000206C40F60161884340F4807020643F4860
:10127000006800F01F0018B12068B0F1A04F0FD136
:10128000206C20F4801020642068C06800F000709A
:1012900000B3206C20F4005040F48050206419E02A
:1012A000206C40F4801020642068B0F1A04F03D07F
:1012B0002F492068884205D14FF0A040C06800F057
:1012C000007000E0002028B1206C20F4005040F4B1
:1012D00080502064206C00F48050B0F5805F04D111
:1012E000606C20F00600606401E00020606400BFD4
:1012F000002084F83C0000BF1E48A16B88621E4895
:10130000A16BC8621D48A16B08631C20216808609E
:101310002068406840F01000216848602068C0687C
:1013200040F001002168C860226802E01AE013E082
:101330000DE002F1400133462A46A06B00F033FD78
:101340002068806840F00400216888600BE000BFDE
:10135000002084F83C0006E0012700BF002084F84C
:101360003C0000E00227384668E700000803005010
:10137000000100503F040008AB0400088D04000881
:1013800010B5024692F82030012B01D0022B06D175
:1013900010684069084314686061002010BD506AFD
:1013A00040F4802050620120F8E7F0B504460D4675
:1013B0001E4694F8207020688368A86800B900E091
:1013C00000BF012F01D0022F7CD103F0806030B923
:1013D00003F0006018B903F08050002873D0C3F305
:1013E0000161022905D9606A40F4000060620120B1
:1013F000F0BD012088403060A86860B9B5F800C031
:10140000E86840EA4C5C206800F5C07000EB011011
:10141000C0F800C00FE0D5E901C040EACC00D5F823
:101420000CC040EA0C00D4F800C00CF5C07C0CEBFA
:10143000011CCCF80000D5F810C0206800F5C07081
:1014400000EB0110C0F804C0287D01280ED12068EF
:1014500000F5C07000EB0110406840F4807C20680B
:1014600000F5C07000EB0110C0F804C0D079000690
:1014700092F806C040EA0C4092F805C040EA0C2CF5
:1014800010794CEA000C206800F5C07000EB0110E8
:10149000C0F80CC0D078000692F802C040EA0C40B8
:1014A00092F801C040EA0C2092F800C040EA0C001B
:1014B000D4F800C00CF5C07C0CEB011CCCF8080083
:1014C000206801E016E00FE000F5C07000EB0110AD
:1014D000006840F0010C206800F5C07000EB0110BE
:1014E000C0F800C0002083E7606A40F4001060622A
:1014F00001207DE7606A40F480206062012077E788
:10150000F0B504460A46216894F82050012D01D018
:10151000022D74D1D1F8000240F00100C1F80002A0
:10152000107D00F01F06012000FA06F3D1F81C021E
:101530009843C1F81C02D069C8B9D1F80C0298438D
:10154000C1F80C02908880B2968940EA064601F5FF
:101550001070576940F83760108880B2168940EAE9
:10156000064601F51070576900EBC7004660D06968
:10157000012819D1D1F80C021843C1F80C02908847
:1015800080B2168840EA064601F51070576940F8A7
:101590003760908980B2168940EA064601F51070DE
:1015A000576900EBC7004660906928B9D1F804027A
:1015B0009843C1F8040204E0D1F804021843C1F8CA
:1015C0000402106928B9D1F814029843C1F8140232
:1015D00004E0D1F814021843C1F81402106A01287B
:1015E00004D1D1F81C021843C1F81C02D1F8000242
:1015F00020F00100C1F800020020F0BDFFE7606AA2
:1016000040F4802060620120F7E7704770B504461F
:1016100094F82050012D01D0022D7DD151B92068C0
:10162000C06800F0030080B9606A40F40010606296
:10163000012070BD2068006900F0030028B9606ACD
:1016400040F4001060620120F3E7206800F5D870D4
:1016500000EB0110006800F004009060906840B951
:10166000206800F5D87000EB01100068400D106094
:1016700007E0206800F5D87000EB01100068C00892
:101680005060206800F5D87000EB0110006800F091
:101690000200D060206800F5D87000EB01104068AF
:1016A00000F00F001061206800F5D87000EB011009
:1016B000406800F47F40000A9061206800F5D8700F
:1016C00000EB01104068000C5061206800F5D870F4
:1016D00000EB011080681870206800F5D87000EBEE
:1016E0000110806800F47F40000A5870206800F5FF
:1016F000D87000EB0110806800F47F00000C987037
:10170000206800F5D87000EB01108068000ED870DA
:10171000206800F5D87000E02FE000EB0110C068F1
:101720001871206800F5D87000EB0110C06800F453
:101730007F40000A5871206800F5D87000EB011056
:10174000C06800F47F00000C9871206800F5D87024
:1017500000EB0110C068000ED87131B92068C06874
:1017600040F020002668F06005E02068006940F045
:1017700020002668306100205BE7606A40F480202A
:101780006062012055E72DE9F05F044600252068DE
:1017900046692068D0F80490206887682068D0F8EF
:1017A0000CA02068D0F810B02068D0F8188006F09F
:1017B0000100002855D007F00100C0B101202168C8
:1017C000886007F0020018B1204600F048FA0EE0E9
:1017D00007F0040010B145F4006508E007F00800C8
:1017E00010B145F4805502E0204600F037FA07F4C6
:1017F0008070C8B14FF480702168886007F4007071
:1018000018B1204600F02DFA0EE007F4806010B108
:1018100045F4005508E007F4006010B145F4804538
:1018200002E0204600F01CFA07F48030C8B14FF403
:1018300080302168886007F4003018B1204600F03D
:1018400012FA0EE007F4802010B145F4004508E0DC
:1018500007F4002010B145F4803502E0204600F086
:1018600001FA06F0080038B10AF0100020B145F482
:10187000007510202168C86006F0040040B10AF02D
:10188000080028B108202168C860204600F0A0F9AF
:1018900006F0020038B12068C06800F0030010B103
:1018A000204600F097F906F0400038B10BF0100028
:1018B00020B145F4806510202168086106F0200001
:1018C00040B10BF0080028B10820216808612046CB
:1018D00000F092F906F0100038B12068006900F0BD
:1018E000030010B1204600F088F906F4003040B142
:1018F00009F0100028B1102021684860204600F04F
:101900007DF906F4803040B109F0080028B10820C4
:1019100021684860204600F0A7F906F4004088B32B
:1019200009F0040078B306F4807020B108F00100DB
:1019300008B145F0010506F4007020B108F002007E
:1019400008B145F0020506F4806020B108F00400FB
:1019500008B145F0040506F40060A0B108F070007D
:1019600088B108F07000402817D006DC10280BD092
:1019700020280CD0302819D10CE0502810D0602835
:1019800014D110E01DE019E045F008050FE045F026
:1019900010050CE045F0200509E045F0400506E0A3
:1019A00045F0800503E045F4807500E000BF00BF0E
:1019B0002068806920F07000216888610420216817
:1019C00048602DB1606A284360622046FFF71DFE23
:1019D000BDE8F09F70B504460CB9012070BD94F8C5
:1019E000200010B9204600F0AFF82068006840F0F1
:1019F00001002168086000F017FB05460DE000F0CB
:101A000013FB401B0A2808D9606A40F4003060626A
:101A1000052084F820000120E0E72068406800F0FD
:101A200001000028EBD02068006820F00200216847
:101A3000086000F0F9FA05460DE000F0F5FA401BE9
:101A40000A2808D9606A40F400306062052084F8F2
:101A500020000120C2E72068406800F00200002852
:101A6000EBD1207E012806D12068006840F080007C
:101A70002168086005E02068006820F08000216887
:101A80000860607E012806D12068006840F04000B0
:101A90002168086005E02068006820F040002168A7
:101AA0000860A07E012806D12068006840F0200070
:101AB0002168086005E02068006820F020002168A7
:101AC0000860E07E012806D12068006820F0100040
:101AD0002168086005E02068006840F01000216877
:101AE0000860207F012806D12068006840F00800C7
:101AF0002168086005E02068006820F0080021687F
:101B00000860607F012806D12068006840F004006A
:101B10002168086005E02068006820F00400216862
:101B20000860D4E902010843216908436169084358
:101B30006168491E08432168C86100206062012075
:101B400084F82000002049E710B586B0044614212F
:101B500001A8FEF710FC1C492068884231D100BF63
:101B60001A48C06940F000701849C8610846C06949
:101B700000F00070009000BF00BF00BF0846406941
:101B800040F4003048610846406900F4003000909D
:101B900000BF00BF4FF4C05001900220029000200F
:101BA0000390032004900920059001A9C00600F0CD
:101BB0005DF900220521142000F052FE142000F0EF
:101BC0003FFE06B010BD000000640040001002405F
:101BD0007047000010B50446064BA3F11C0200211B
:101BE0002046FFF713FD03491C3908681C31FEF736
:101BF00063FD10BD8803002070477047704770B5C3
:101C0000044694F82000012822D1022084F8200004
:101C10002068006820F001002168086000F004FAE4
:101C200005460DE000F000FA401B0A2808D9606A5A
:101C300040F400306062052084F82000012070BD6F
:101C40002068406800F001000028EBD16062F6E7F0
:101C5000606A40F4002060620120F0E7704770473E
:101C60007047704770477047704770B50446E06B27
:101C700005682068066894F84010042088402840D1
:101C8000D0B106F00400B8B12068006800F0200070
:101C900028B92068006820F004002168086094F8E2
:101CA000401004208840E16B4860E06A00284ED074
:101CB0002046E16A88474AE094F8401002208840B4
:101CC000284008B306F00200F0B12068006800F078
:101CD000200040B92068006820F00A0021680860F0
:101CE000012084F8210094F8401002208840E16B24
:101CF000486000BF002084F8200000BFA06A30B315
:101D00002046A16A884722E094F8401008208840C5
:101D10002840E0B106F00800C8B12068006820F053
:101D20000E002168086094F8401001208840E16BA3
:101D300048600120A06384F8210000BF002084F8DF
:101D4000200000BF206B10B12046216B884770BD7A
:101D500070B5044600250CB9012070BD022084F83E
:101D600021002068056843F6F0708543D4E901013D
:101D70000843E16808432169084361690843A16990
:101D80000843E16908430543206805602046FEF7E3
:101D9000FBFC0020A063012084F82100002084F8CF
:101DA000200000BFD9E72DE9F04104460D46164654
:101DB0001F464FF0000800BF94F82000012802D110
:101DC0000220BDE8F081012084F8200000BF94F8D3
:101DD000210001282CD1022084F821000020A063DA
:101DE0002068006820F00100216808603B46324608
:101DF00029462046FEF7D6FCE06A30B1206800682C
:101E000040F00E00216808600BE02068006840F098
:101E10000A00216808602068006820F0040021683A
:101E200008602068006840F001002168086006E052
:101E300000BF002084F8200000BF4FF00208404699
:101E4000BFE7000070B5044600F0EEF806462546F0
:101E5000681C10B104480078054400BF00F0E4F8A5
:101E6000801BA842FAD370BD0C00002078B5034651
:101E70000A460021BFE001268E40156805EA0604E7
:101E8000002C73D0157905F00305012D04D01579C8
:101E900005F00305022D13D198684E000325B540C7
:101EA000A8434E00D568B54028439860586801257E
:101EB0008D40A8431579C5F300158D40284358601F
:101EC000157905F00305032D09D0D8684E000325C8
:101ED000B540A8434E009568B5402843D8601579B1
:101EE00005F00305022D13D1CE0803F1200555F8A6
:101EF00026004D07EE0E0F25B540A8434E07F60EFF
:101F00001569B5402843CE0803F1200545F82600A1
:101F100018684E000325B540A843157905F0030560
:101F20004E00B54028431860556805F44035002D33
:101F300060D000BF334DAD6945F00105314EB5614C
:101F40003546AD6905F00105009500BF00BF4FEAB9
:101F5000B6358E0855F826008D072E0F0F25B54093
:101F6000A843B3F1904F02D1002510E042E0264D86
:101F7000AB4201D101250AE0244DAB4201D102253B
:101F800005E0234DAB4201D1032500E005258E0776
:101F9000360FB54028431F4D8E0845F826001E4DCC
:101FA0002868A043556805F4803505B120431A4DD3
:101FB00028602D1D2868A043556805F4003505B13B
:101FC0002043154D2D1D28602D1D2868A043556800
:101FD00005F4801505B120430F4D083528602D1DEF
:101FE0002868A043556805F4001505B120430A4D43
:101FF0000C352860491C1568CD40002D7FF43BAF9F
:1020000078BD0000001002400004004800080048AD
:10201000000C004808000140000401400AB1816141
:1020200000E08162704700000148006870470000CE
:1020300004000020024600BF92F8C000012801D130
:1020400002207047012082F8C00000BF022082F801
:10205000C100481C80B91068D0F8CC0320F00203FE
:102060001068C0F8CC331068D0F8CC0340F00103FE
:102070001068C0F8CC3318E01068D0F8CC0340F0FA
:1020800002031068C0F8CC331068D0F8CC0320F0FD
:102090000C0008431368C3F8CC031068D0F8CC03D5
:1020A00040F001031068C0F8CC33012082F8C10071
:1020B0000020C6E730B503460C4693F8C10002285D
:1020C00000D130BD00BF93F8C000012801D102202B
:1020D000F7E7012083F8C00000BF022083F8C100A9
:1020E000108800F4E0519088C0F308000143108983
:1020F00000F400700143108A00F48040014390898D
:1021000000F400400143908A134D05EA004001436A
:10211000906900F000700143106A00F080400143B4
:10212000D06900F0004001431868803000EBC41013
:10213000806B0A4D284008431D68803505EBC415A7
:10214000A863012083F8C10000BF002083F8C0000D
:1021500000BF00BFB5E700000000FF010020003C09
:10216000F8B504460CB90120F8BD0220C43404F8C7
:10217000030C002020606060A060E060206160616E
:10218000C43C207A00F0010008B335492068884239
:102190000DD100BF3348806940F00050314988615B
:1021A0000846806900F00050009000BF00BF206822
:1021B000066826F44046208A00F44040064326F490
:1021C0004056A08A00F4405006432068066020462E
:1021D00000F04AF8207A00F0020048B12068066852
:1021E00026F44076A08900F440700643206806601B
:1021F000012084F8C10000BF002084F8C00000BFA7
:10220000002529E00021C5EBC50204F1180040F8C3
:102210002210C5EBC50200EB82004160C5EBC50290
:1022200004F1180000EB82008160C5EBC50204F1E7
:10223000180000EB8200C160C5EBC50204F1180074
:1022400000EB82000161C5EBC50204F1180000EB50
:1022500082008161681CC5B2052DD3D9002083E7B7
:10226000007401400010024008B5094A016891421B
:102270000DD100BF0749896941F00051054A9161BC
:102280001146896901F00051009100BF00BF08BDEF
:10229000007401400010024010B586B004461421BD
:1022A00001A8FEF768F820492068884239D100BFAC
:1022B0001E48406940F480201C4948610846406936
:1022C00000F48020009000BF00BF00BF08464069B6
:1022D00040F4003048610846406900F40030009046
:1022E00000BF00BF4FF44040019002200290002048
:1022F0000390032004900D20059001A90C48FFF7DE
:10230000B5FD4FF440700190022002900020039030
:10231000032004900D20059001A94FF09040FFF795
:10232000A5FD06B010BD0000007401400010024081
:102330000004004870B504460D46FFF775FE0646DA
:102340000CE0681C50B1FFF76FFE801BA84200D85C
:1023500025B9072084F8C100032070BD2068D0F89B
:102360008803C0F300400028EBD0012084F8C100AE
:1023700000BF002084F8C00000BF00BFEDE770B5CB
:1023800004460D46164694F8C100022800D170BDDF
:10239000022084F8C100052D04D13146204601F009
:1023A000AFFE04E032462946204601F064FF0120DA
:1023B00084F8C1000020EAE730B5044694F8C10073
:1023C000022800D130BD00BF94F8C000012801D11F
:1023D0000220F7E7012084F8C00000BF022084F843
:1023E000C100052928D1012A06D0022A08D0042AD2
:1023F0000AD0082A10D10BE018682568E86114E0BB
:1024000018682568686210E018682568A8620CE002
:1024100018682568E86208E0072084F8C10000BF5A
:10242000002084F8C00000BF00BF00BF94F8C100C6
:1024300007287DD10120C5E7012A06D0022A0BD04A
:10244000042A4CD0082A74D150E01D6820688030DE
:1024500000EBC110C5619AE01D682068803000EB78
:10246000C1104562586868B32068803000EBC11025
:10247000006820F440552068803000EBC1100560F2
:102480002068803000EBC11000685D682843256833
:10249000803505EBC11528605868B0F5005F06D19E
:1024A0009D682068803000EBC110C56116E0586857
:1024B000B0F5405F12D19D682068803000EBC110FC
:1024C00085620BE02068803000EBC110006820F4CA
:1024D00040502568803505EBC115286057E01D6820
:1024E0002068803000EBC110856250E01D682068D4
:1024F000803000EBC110C562586888B32068803016
:1025000000EBC110006820F440452068803000EBEB
:10251000C11005602068803000EBC11000685D6864
:1025200040EA85052068803000EBC110056001E0BD
:1025300034E023E05868B0F5005F06D19D6820685C
:10254000803000EBC110C56117E05868B0F5405FFE
:1025500013D19D682068803000EBC11085620CE0CB
:10256000FFE72068803000EBC110006820F4404095
:102570002568803505EBC115286008E0072084F840
:10258000C10000BF002084F8C00000BF00BF00BF32
:1025900094F8C100072801D1012013E7012084F835
:1025A000C10000BF002084F8C00000BF00BF09E7E1
:1025B000024600BF92F8C000012801D102207047F6
:1025C000012082F8C00000BF022082F8C10010681C
:1025D0000068084313681860012082F8C10000BF3A
:1025E000002082F8C00000BF00BFE8E72DE9F041FD
:1025F00004460D4616461F4694F8C100022801D134
:10260000BDE8F08100BF94F8C000012801D102208C
:10261000F6E7012084F8C00000BF022084F8C10062
:102620003B4632462946204601F0ACFD012084F8A5
:10263000C10000BF002084F8C00000BF00BFDFE77A
:10264000024600BF92F8C000012801D10220704765
:10265000012082F8C00000BF022082F8C10010688B
:10266000D0F8940308431368C3F89403012082F858
:10267000C10000BF002082F8C00000BF00BFE6E735
:10268000024600BF92F8C000012801D10220704725
:10269000012082F8C00000BF022082F8C10010684B
:1026A000D0F8980308431368C3F89803012082F810
:1026B000C10000BF002082F8C00000BF00BFE6E7F5
:1026C00070B504460D46164694F8C100022800D1A4
:1026D00070BD00BF94F8C000012801D10220F7E7C7
:1026E000012084F8C00000BF022084F8C100052D3D
:1026F00004D13146204601F017FD04E03246294658
:10270000204601F0D8FDC5EBC50204F1180000EB2E
:10271000820031688160C5EBC50204F1180000EB4E
:1027200082007168C160C5EBC50204F1180000EBBE
:102730008200B1680161C5EBC50204F1180000EB2D
:102740008200F1684161C5EBC50204F1180000EB9D
:102750008200316981612946204601F091FC012007
:1027600084F8C10000BF002084F8C00000BF00BF93
:10277000AEE70000034800680349097808440149AE
:1027800008607047040000200C00002010B50848C5
:10279000006840F0100006490860032000F09EF831
:1027A0000F2000F007F800F02BF8002010BD00000B
:1027B0000020024070B504460E4800784FF47A714C
:1027C000B1FBF0F00C490968B1FBF0F5284601F0C7
:1027D00057F908B1012070BD102C07D20022214604
:1027E000501E00F03DF80548046001E00120F2E7CA
:1027F0000020F0E70C00002010000020080000205E
:1028000008B500BF0D48806940F001000B498861A0
:102810000846806900F00100009000BF00BF00BFC3
:102820000846C06940F08050C8610846C06900F0A1
:102830008050009000BF00BF08BD000000100240A3
:1028400001460846002809DB00F01F0301229A40D8
:1028500043099B0003F1E023C3F8002100BF704748
:102860002DE9F05F80460D461646002702F084FDF4
:10287000074639462A46334601F00700C0F1070AE9
:10288000BAF1040F02D94FF0040A01E0C0F1070ABF
:10289000D14600F1040ABAF1070F02D24FF0000A44
:1028A00001E0A0F1030AD4464FF0010A0AFA09FA3E
:1028B000AAF1010A0AEA020A0AFA0CFA4FF0010B1D
:1028C0000BFA0CFBABF1010B0BEA030B4AEA0B040E
:1028D0002146404602F058FDBDE8F09F00BF00F0E1
:1028E0000702064B19684FF6FF031940044B0B43D0
:1028F00043EA0221014B196000BF70470CED00E074
:102900000000FA0538B5044600250CB9012038BD91
:1029100094F83200052801D10120F8E794F832003C
:10292000022801D10120F2E7606800B900BF2069E8
:10293000802802D1606800B900BF6068402800D1DB
:1029400000BF606AB0F5802F00D100BF00BF2F48E4
:10295000806940F001002D4988610846806900F0D7
:102960000100009000BF00BF94F8320010B90020B1
:1029700084F83100204600F04DF86068402802D00D
:10298000606860281BD1E1686068084321690843DA
:10299000A1690843E1690843216A0843616A084361
:1029A000218D40EAC14194F82C0041EA0060216881
:1029B0000968174A11400843216808601EE0D4E9FD
:1029C00001010843E168084321690843616908433C
:1029D000A1690843E1690843216A0843616A084321
:1029E000218D40EAC14194F82C0041EA0061206841
:1029F0000068074A104001432068016094F83200E3
:102A000010B9012084F83200284680E70010024007
:102A1000113800E010B586B00446142101A8FDF776
:102A2000AAFC0F492068884218D100BF0D484069B0
:102A300040F400300B4948610846406900F400301A
:102A4000009000BF00BFE020019003200290002012
:102A5000039001A94FF09040FFF708FA06B010BDAF
:102A60003C000140001002400146002009B901204D
:102A700014E091F83220052A01D101200EE091F8EE
:102A80003220012A09D10A68126842F001020B685B
:102A90001A60042281F8322000E001207047000013
:102AA000F8B50446002600250027206800F4803091
:102AB000B0F5803F73D17A48C06900F0805070B99A
:102AC00000BF7748C06940F080507549C86108462A
:102AD000C06900F08050009000BF00BF012771481E
:102AE000006800F48070B0B96E48006840F48070EF
:102AF0006C490860FFF798FA064606E0FFF794FA7B
:102B0000801B642801D90320F8BD6648006800F4E2
:102B100080700028F2D06248006A00F44075002DF1
:102B20006BD0A08800F44070A84266D05C48006A70
:102B300020F440750121080490FAA0F0B0FA80F06A
:102B4000594A02EB8000C0F800140020090491FAF1
:102B5000A1F1B1FA81F102EB8101C1F80004504802
:102B6000056205F00100B8B3FFF75EFA064608E01B
:102B7000FFF75AFA801B41F28831884201D90320BD
:102B8000C2E74020022191FAA1F1B1FA81F1084394
:102B90000121B1EB601F03D1414800681FE03BE019
:102BA0004020022191FAA1F1B1FA81F108430221FA
:102BB000B1EB601F02D13A48006A10E040200221C8
:102BC00091FAA1F1B1FA81F108430421B1EB601F40
:102BD00003D13348406802E00FE03148406A4021A9
:102BE000022292FAA2F2B2FA82F2114301F01F021B
:102BF0000121914008400028BAD02948006A20F4F9
:102C000040706168084326490862012F04D10846D4
:102C1000C06920F08050C861207800F0010038B110
:102C20001F48006B20F00300A16808431C4908639B
:102C3000207800F02000202807D11948006B20F0F0
:102C40001000E168084316490863207800F080000E
:102C5000802807D11248C06A20F4F870216908431F
:102C60000F49C862208800F48050B0F5805F07D11A
:102C70000B48006B20F480706169084308490863C1
:102C8000208800F48040B0F5804F07D10448006BE5
:102C900020F48050A169084301490863002033E70C
:102CA00000100240007000400000424270B504462F
:102CB0000D4600260CB9012070BDA248006800F046
:102CC0000700A8420ED29F48006820F00700284362
:102CD0009C4908600846006800F00700A84201D03F
:102CE0000120E9E7207800F00200022807D1964889
:102CF000406820F0F000A1680843934948602078BC
:102D000000F0010000287CD0606801283BD1202021
:102D1000010391FAA1F1B1FA81F108430121B1EB6C
:102D2000601F02D1884800681DE02020010391FA4D
:102D3000A1F1B1FA81F108430221B1EB601F02D188
:102D40008148006A0FE02020010391FAA1F1B1FA55
:102D500081F108430421B1EB601F02D17A48406839
:102D600001E07948406A20210A0392FAA2F2B2FAFD
:102D700082F2114301F01F02012191400840002816
:102D80007CD1012098E7606802283BD12020010512
:102D900091FAA1F1B1FA81F108430121B1EB601F71
:102DA00002D1694800681DE02020010591FAA1F1D7
:102DB000B1FA81F108430221B1EB601F02D16248F0
:102DC000006A0FE02020010591FAA1F1B1FA81F12A
:102DD00008430421B1EB601F02D15B48406801E069
:102DE0005948406A20210A0592FAA2F2B2FA82F208
:102DF000114301F01F02012191400840E8BB01206E
:102E00005AE758E02020022191FAA1F1B1FA81F1AC
:102E100008430121B1EB601F02D14B4800681DE05F
:102E20002020022191FAA1F1B1FA81F10843022197
:102E3000B1EB601F02D14448006A0FE0202002215C
:102E400091FAA1F1B1FA81F108430421B1EB601FBD
:102E500002D13D48406801E03B48406A20210222FF
:102E600092FAA2F2B2FA82F2114301F01F0201219A
:102E70009140084008B901201EE7FFE7324840684A
:102E800020F00300616808432F494860FFF7CCF841
:102E9000064608E0FFF7C8F8801B41F288318842F7
:102EA00001D9032008E72848406800F00C00616859
:102EB000B0EB810FEED12348006800F00700A84274
:102EC0000ED92048006820F0070028431D490860FB
:102ED0000846006800F00700A84201D00120EBE698
:102EE000207800F00400042807D11748406820F437
:102EF000E060E168084314494860207800F0080069
:102F0000082808D11048406820F46050216940EA40
:102F1000C1000D49486000F051F80B49496801F0C3
:102F2000F001F02292FAA2F2B2FA82F2D140074AFC
:102F3000515CC8400649086006480068FFF73AFC43
:102F40000020B9E60020024000100240F66C0008A4
:102F500010000020080000200148006870470000B1
:102F60001000002000B5FFF7F7FF0749496801F49A
:102F7000E0614FF4E06292FAA2F2B2FA82F2D1403A
:102F8000024A515CC84000BD00100240066D0008B6
:102F900000B5FFF7E1FF0749496801F460514FF4BC
:102FA000605292FAA2F2B2FA82F2D140024A515C25
:102FB000C84000BD00100240066D00082DE9F04138
:102FC0000024002500270026A0461F48446804F07E
:102FD0000C0078B3042802D008282CD102E0DFF8D6
:102FE0006C802CE004F470104FF4701191FAA1F190
:102FF000B1FA81F1C84016490E5C1348C06A00F06E
:103000000F000F2191FAA1F1B1FA81F1C8401149E5
:103010000D5C04F4803040B12A4600230B48194669
:10302000FDF732F9A0FB067102E00B48A0FB067128
:10303000B84604E000E000BFDFF8108000BF00BF2A
:103040004046BDE8F08100000010024000127A0006
:10305000D66C0008E66C000800093D00F8B504468F
:103060000CB90120F8BD207800F0010000287BD0C9
:10307000FA48406800F00C0004280CD0F74840687B
:1030800000F00C00082845D1F448406800F4803076
:10309000B0F5803F3ED12020010391FAA1F1B1FAB1
:1030A00081F108430121B1EB601F02D1EB480068B8
:1030B0001DE02020010391FAA1F1B1FA81F108434A
:1030C0000221B1EB601F02D1E448006A0FE020202A
:1030D000010391FAA1F1B1FA81F108430421B1EBA6
:1030E000601F02D1DD48406801E0DC48406A2021D1
:1030F0000A0392FAA2F2B2FA82F2114301F01F021D
:103100000121914008400028B1D0606800282BD1EF
:103110000120A7E700BF6068B0F5803F06D1CF4827
:10312000006840F48030CD49086029E0606858B9F3
:10313000CA48006820F48030C84908600846006822
:1031400020F4802008601BE06068B0F5A02F0CD14F
:10315000C248006840F48020C04908600846006802
:1031600040F4803008600BE0A1E0BC48006820F427
:103170008030BA4908600846006820F48020086062
:1031800000BFB648C06A20F00F00A1680843B349E9
:10319000C8626068A0B3FEF747FF054606E0FEF789
:1031A00043FF401B642801D903205BE72020010373
:1031B00091FAA1F1B1FA81F108430121B1EB601F4D
:1031C00002D1A64800681EE02020010391FAA1F177
:1031D000B1FA81F108430221B1EB601F02D19F488F
:1031E000006A10E02020010391FAA1F1B1FA81F107
:1031F00008430421B1EB601F03D19848406802E006
:1032000010E09648406A20210A0392FAA2F2B2FA2C
:1032100082F2114301F01F02012191400840002871
:10322000BDD044E0FEF700FF054606E0FEF7FCFED9
:10323000401B642801D9032014E72020010391FAE0
:10324000A1F1B1FA81F108430121B1EB601F02D174
:10325000824800681DE02020010391FAA1F1B1FA33
:1032600081F108430221B1EB601F02D17B48006A63
:103270000FE02020010391FAA1F1B1FA81F1084396
:103280000421B1EB601F02D17448406801E073482B
:10329000406A20210A0392FAA2F2B2FA82F21143A2
:1032A00001F01F020121914008400028BED1207882
:1032B00000F0020002285CD16848406800F00C0071
:1032C00050B16648406800F00C00082852D16348AD
:1032D000406800F48030E8BB2020022191FAA1F17F
:1032E000B1FA81F108430121B1EB601F02D15B48C3
:1032F00000681DE02020022191FAA1F1B1FA81F1CC
:1033000008430221B1EB601F02D15448006A0FE06C
:103310002020022191FAA1F1B1FA81F108430421A0
:10332000B1EB601F02D14D48406801E04B48406A54
:103330002021022292FAA2F2B2FA82F2114301F0A3
:103340001F0201219140084028B12069012802D0C4
:10335000012087E60EE04148006820F0F800F822DE
:1033600092FAA2F2B2FA82F26169914008433B49B3
:103370000860B1E0206970B3012191FAA1F0B0FAC0
:1033800080F0374A42F82010FEF74EFE054606E070
:10339000FEF74AFE401B022801D9032062E62020E6
:1033A000022191FAA1F1B1FA81F108430121B1EBB7
:1033B000601F02D1294800681EE02020022191FAF6
:1033C000A1F1B1FA81F108430221B1EB601F03D1F1
:1033D0002248006A10E02CE02020022191FAA1F19D
:1033E000B1FA81F108430421B1EB601F02D11B48FF
:1033F000406801E01948406A2021022292FAA2F2B4
:10340000B2FA82F2114301F01F02012191400840FB
:103410000028BDD01148006820F0F800F82292FA88
:10342000A2F2B2FA82F26169914008430B49086046
:1034300052E00020012191FAA1F1B1FA81F1084A8C
:1034400042F82100FEF7F0FD05460BE0FEF7ECFD2B
:10345000401B022806D9032004E6000000100240A9
:10346000000042422020022191FAA1F1B1FA81F13B
:1034700008430121B1EB601F02D1FB4800681DE049
:103480002020022191FAA1F1B1FA81F10843022131
:10349000B1EB601F02D1F448006A0FE02020022146
:1034A00091FAA1F1B1FA81F108430421B1EB601F57
:1034B00002D1ED48406801E0EB48406A2021022239
:1034C00092FAA2F2B2FA82F2114301F01F02012134
:1034D000914008400028B9D1207800F00800082861
:1034E00051D1A06980B3012191FAA1F0B0FA80F026
:1034F000DE4A02EB8000C0F88014FEF795FD054619
:1035000006E0FEF791FD401B022801D90320A9E542
:103510006020022191FAA1F1B1FA81F10843012161
:10352000B1EB601F02D1D04800681EE0602002218C
:1035300091FAA1F1B1FA81F108430221B1EB601FC8
:1035400003D1C948006A10E01EE06020022191FA10
:10355000A1F1B1FA81F108430421B1EB601F02D15E
:10356000C148406801E0C048406A6021022292FAE6
:10357000A2F2B2FA82F2114301F01F02012191403E
:1035800008400028BDD04FE00020012191FAA1F1B0
:10359000B1FA81F1B54A02EB8101C1F88004FEF76E
:1035A00043FD054606E0FEF73FFD401B022801D91A
:1035B000032057E56020022191FAA1F1B1FA81F1CF
:1035C00008430121B1EB601F02D1A74800681DE04C
:1035D0006020022191FAA1F1B1FA81F108430221A0
:1035E000B1EB601F02D1A048006A0FE06020022109
:1035F00091FAA1F1B1FA81F108430421B1EB601F06
:1036000002D19948406801E09748406A602102224F
:1036100092FAA2F2B2FA82F2114301F01F020121E2
:10362000914008400028BED1207800F00400042812
:1036300073D100278C48C06900F0805070B900BF7A
:103640008948C06940F080508749C8610846C06910
:1036500000F08050009000BF00BF01278448006840
:1036600000F48070B0B98248006840F480708049EE
:103670000860FEF7D9FC054606E0FEF7D5FC401BC6
:10368000642801D90320EDE47948006800F48070D3
:103690000028F2D000BFE068012806D17248006A15
:1036A00040F001007049086227E0E06858B96E48B0
:1036B000006A20F001006C4908620846006A20F0A8
:1036C0000400086219E0E06805280BD16648006A2A
:1036D00040F00400644908620846006A40F00100B6
:1036E00008620AE06048006A20F001005E49086252
:1036F0000846006A20F00400086200BFE068B8B322
:10370000FEF792FC054609E0FEF78EFC401B41F2F5
:103710008831884202D90320A4E48BE040200221B2
:1037200091FAA1F1B1FA81F108430121B1EB601FD7
:1037300002D14D4800681EE04020022191FAA1F11B
:10374000B1FA81F108430221B1EB601F02D1464872
:10375000006A10E04020022191FAA1F1B1FA81F152
:1037600008430421B1EB601F03D13F48406802E0E9
:1037700010E03D48406A4021022292FAA2F2B2FAD9
:1037800082F2114301F01F020121914008400028FC
:10379000BAD046E0FEF748FC054608E0FEF744FCD8
:1037A000401B41F28831884201D903205AE440206D
:1037B000022191FAA1F1B1FA81F108430121B1EBA3
:1037C000601F02D1284800681DE04020022191FAC4
:1037D000A1F1B1FA81F108430221B1EB601F02D1DE
:1037E0002148006A0FE04020022191FAA1F1B1FACC
:1037F00081F108430421B1EB601F02D11A484068EF
:1038000001E01948406A4021022292FAA2F2B2FA7B
:1038100082F2114301F01F0201219140084000286B
:10382000BCD1012F05D11048C06920F080500E494D
:10383000C86100BFE069002874D00B48406800F000
:103840000C0008286FD0E06902286DD100204FF0ED
:10385000807191FAA1F1B1FA81F1044A42F8210094
:10386000FEF7E2FB05460CE0001002400000424279
:1038700000700040FEF7D8FB401B022801D903204E
:1038800047E42020010591FAA1F1B1FA81F1084342
:103890000121B1EB601F02D1774800681DE02020B4
:1038A000010591FAA1F1B1FA81F108430221B1EBCE
:1038B000601F02D17048006A0FE02020010591FAD4
:1038C000A1F1B1FA81F108430421B1EB601F02D1EB
:1038D0006948406801E06848406A20210A0592FA78
:1038E000A2F2B2FA82F2114301F01F0201219140CB
:1038F00008400028BED1D4E9081008435E49496851
:1039000021F4741108435C4948600120010691FAD2
:10391000A1F1B1FA81F1594A42F82100FEF784FB86
:10392000054609E0A5E092E041E0FEF77DFB401B83
:10393000022801D9032038E42020010591FAA1F1E1
:10394000B1FA81F108430121B1EB601F02D14A486D
:1039500000681DE02020010591FAA1F1B1FA81F182
:1039600008430221B1EB601F02D14348006A0FE017
:103970002020010591FAA1F1B1FA81F10843042157
:10398000B1EB601F02D13C48406801E03A48406A10
:1039900020210A0592FAA2F2B2FA82F2114301F052
:1039A0001F020121914008400028BED061E00020A4
:1039B0004FF0807191FAA1F1B1FA81F12F4A42F8EA
:1039C0002100FEF731FB054606E0FEF72DFB401B0C
:1039D000022801D903202FE42020010591FAA1F14A
:1039E000B1FA81F108430121B1EB601F02D12248F5
:1039F00000681DE02020010591FAA1F1B1FA81F1E2
:103A000008430221B1EB601F02D11B48006A0FE09E
:103A10002020010591FAA1F1B1FA81F108430421B6
:103A2000B1EB601F02D11448406801E01248406ABF
:103A300020210A0592FAA2F2B2FA82F2114301F0B1
:103A40001F020121914008400028BED111E0E06929
:103A5000012800D17DE40848466806F48031206AD8
:103A6000814204D106F47011606A814201D00120C4
:103A70006FE400206DE400000010024000004242AC
:103A800070B504462546681EB0F1807F01D3012041
:103A90000FE0681E4FF0E02148610F214FF0FF302A
:103AA00001F072FC00204FF0E021886107200861DE
:103AB000002070BD704770477047000030B5024667
:103AC0000B4600BF92F83C00012801D1022030BD16
:103AD000012082F83C0000BF022082F83D001068FF
:103AE000416810688468174D1068A84203D121F41A
:103AF00070015868014321F0700118680143106893
:103B00004160104D1068A8420BD01068B0F1804F92
:103B100007D00D4D1068A84203D00C4D1068A84284
:103B200005D124F080049868044310688460012063
:103B300082F83D0000BF002082F83C0000BF00BFBB
:103B4000C5E70000002C0140000400400040014097
:103B500010B504460CB9012010BD94F83D0028B9F9
:103B6000002084F83C00204600F02AF8022084F867
:103B70003D00211D206801F011F9012084F8480062
:103B800000BF84F83E0001213F200155402001552F
:103B900041200155422001554320015500BF00BF7F
:103BA000012084F844004520015546200155472056
:103BB000015500BF012084F83D000020CCE7000043
:103BC00038B504462068B0F1804F15D100BF0B48CE
:103BD000C06940F001000949C8610846C06900F0A9
:103BE0000100009000BF00BF002211461C20FEF71C
:103BF00037FE1C20FEF724FE38BD000000100240F6
:103C0000014691F83D00012801D0012070470220B3
:103C100081F83D000868C06840F001000B68D8607A
:103C2000144B086898420BD00868B0F1804F07D059
:103C3000114B0868984203D0104B0868984210D185
:103C4000086880680E4B00EA0302062A0FD0B2F51E
:103C5000803F0CD00868006840F001000B681860D5
:103C600005E00868006840F001000B68186000205B
:103C7000CCE70000002C014000040040004001405F
:103C8000070001002DE9F04104460D46002700BF62
:103C900094F83C00012802D10220BDE8F081012007
:103CA00084F83C0000BF022084F83D00206886684C
:103CB0003748064026F47F462068866028685028EA
:103CC00033D00CDC202850D004DC00284BD0102846
:103CD00051D149E0302849D040284CD139E0602802
:103CE0002DD0702807D0B0F5805F03D0B0F5005F0D
:103CF00041D10DE041E0D5E902136A68206801F086
:103D000097F82068866846F077062068866034E079
:103D1000D5E902136A68206801F08AF82068806893
:103D200040F480402168886027E0EA68696820687C
:103D300001F092F85021206801F085F81DE0EA6852
:103D40006968206801F09BF86021206801F07BF829
:103D500013E0EA686968206801F07EF84021206875
:103D600001F071F809E000BF00BF00BF29682068BA
:103D700001F069F801E0012700BF00BF012084F8CD
:103D80003D0000BF002084F83C0000BF384684E7B7
:103D900088FFFEFF704710B5044620680069C0F335
:103DA0004000D8B12068C068C0F34000B0B16FF0E7
:103DB000020021680861012020772068806900F0F6
:103DC000030018B12046FFF7E5FF05E0204600F0AC
:103DD000BEF8204600F0BCF800202077206800697B
:103DE000C0F38000D8B12068C068C0F38000B0B1D3
:103DF0006FF0040021680861022020772068806944
:103E000000F4407018B12046FFF7C4FF05E02046DB
:103E100000F09DF8204600F09BF8002020772068F5
:103E20000069C0F3C000D8B12068C068C0F3C0000A
:103E3000B0B16FF008002168086104202077206885
:103E4000C06900F0030018B12046FFF7A3FF05E0AA
:103E5000204600F07CF8204600F07AF80020207719
:103E600020680069C0F30010D8B12068C068C0F3B2
:103E70000010B0B16FF010002168086108202077B1
:103E80002068C06900F4407018B12046FFF782FF37
:103E900005E0204600F05BF8204600F059F80020CD
:103EA00020772068006900F0010058B12068C068E0
:103EB00000F0010030B16FF0010021680861204678
:103EC00000F047F820680069C0F3C01058B12068BE
:103ED000C068C0F3C01030B16FF080002168086185
:103EE0002046FFF7E8FD20680069C0F3002058B1C4
:103EF0002068C068C0F3C01030B16FF480702168D2
:103F000008612046FFF7D6FD20680069C0F38010E5
:103F100058B12068C068C0F3801030B16FF0400025
:103F200021680861204600F015F820680069C0F398
:103F3000401058B12068C068C0F3401030B16FF035
:103F40002000216808612046FFF7B6FD10BD7047CC
:103F500070477047704710B504460CB9012010BD7A
:103F6000A06900B100E000BFA06F28B9002084F86C
:103F70007400204600F02AF82420A067206800681A
:103F800020F0010021680860204601F041F8012876
:103F900000D1E4E7606A10B1204600F084FF206899
:103FA000406820F49040216848602068806820F0D4
:103FB0002A00216888602068006840F001002168BC
:103FC0000860204600F0EBFFC9E7000010B586B09E
:103FD0000446142101A8FCF7CEF924492068884240
:103FE00041D100BF2248C06940F400302049C86177
:103FF0000846C06900F40030009000BF00BF00BF59
:104000000846406940F4802048610846406900F451
:104010008020009000BF00BF182001900220029075
:1040200000200390032004900720059001A9114867
:10403000FDF71CFF1048114908601020486000215E
:104040000E4881608021C160002101614161816170
:10405000C161FDF77DFE08B1FCF7BBFB00BF07485F
:10406000E066446200BF06B010BD0000004400409E
:10407000001002400004004880000240BC050020FF
:1040800006293AD2DFE801F00C151E27300302683A
:10409000D2F8842342F001030268C2F884332DE091
:1040A0000268D2F8842342F002030268C2F8843323
:1040B00024E00268D2F8842342F004030268C2F8C4
:1040C00084331BE00268D2F8842342F008030268BC
:1040D000C2F8843312E00268D2F8842342F010035D
:1040E0000268C2F8843309E00268D2F8842342F0FF
:1040F00020030268C2F8843300E000BF00BF7047AD
:1041000010B503681A6822F007028B681A4322F080
:104110001802CB681A4303681A600B68046863616D
:104120004B680468A36110BD10B50246146820688E
:104130001468D4F8A03320F020004C69204320F408
:1041400000608C69204320F48060CC69204320F01B
:10415000C0600C6A204320F000604C6A204320F0CD
:1041600040408C6A40EA840020F000500C6B2043F1
:1041700023F48033CC6A2343146820601468C4F8A5
:10418000A03310BDF0B5154600240768803707EB53
:10419000C1177A6E0768803707EBC117BE6B202DF9
:1041A0002FD00CDC042D16D004DC012D12D0022DF2
:1041B0003BD124E0082D23D0102D36D10CE0402D2A
:1041C0000BD0802D1ED0B5F5807F07D0B5F5007FD0
:1041D0002BD118E000BF00BF00BF00BFD3F804C060
:1041E0000768803707EBC117C7F83CC0D3F808C091
:1041F0000768803707EBC117C7F840C016E000BF5B
:1042000000BF00BF00BFD3F804C00768803707EBCA
:10421000C117C7F844C0D3F808C00768803707EB58
:10422000C117C7F848C0102400E000BF00BFFE2738
:10423000A740BA431F68A7403A43DF68A7403A4304
:104240001F69A7403A435F69A7403A439F69A74067
:104250003A431F69082F08D106F400772FB906F0FA
:10426000007717B9DF69A7403A430768803707EB43
:10427000C1177A66F0BD30B50468803404EBC11410
:10428000236823F007039468234323F01803D468BA
:1042900023430468803404EBC11423601568046868
:1042A000803404EBC114656155680468803404EB04
:1042B000C114A56130BD2DE9F0410346D3F800C01B
:1042C0000CF1800C0CEBC11CDCF800C02CF0704829
:1042D000D3F800C00CF1800C0CEBC11CCCF80080B2
:1042E000D3F800C00CF1800C0CEBC11CDCF8000012
:1042F000D3F800C00CF1800C0CEBC11CDCF868504A
:10430000D3F800C00CF1800C0CEBC11CDCF864602D
:10431000D3F800C0DCF8A04320F02000D2F814C08D
:104320004CEA000020F40060D2F818C04CEA00000B
:1043300020F48060D2F81CC04CEA000020F0C0607D
:10434000D2F820C04CEA000020F00060D2F824C06F
:104350004CEA000020F07040D2F828C04CEA00007F
:1043600020F40030D2F830C0BCF1005F01D140F43D
:10437000003020F04000D2F834C04CEA000020F4B5
:104380008020D2F850C04CEA000020F0FC70D2F837
:1043900048C04CEA000025F01F0592F838C00CF028
:1043A0001F0C4CEA050525F00045D2F83CC04CEA4C
:1043B0000505D2F834C0BCF1000F05D126F4807693
:1043C000D2F840C04CEA0606D2F844C0BCF5606F93
:1043D00004D0D2F844C0BCF5F05F04D1D2F834C0A8
:1043E000BCF1400F05D126F4F056D2F844C04CEA97
:1043F0000606D76C052927D2DFE801F0030A111859
:104400001F0024F40034D2F82CC044EA4C041CE011
:1044100024F48024D2F82CC044EA8C0415E024F45F
:104420000024D2F82CC044EACC040EE024F480141A
:10443000D2F82CC044EA0C1407E024F40014D2F89B
:104440002CC044EA4C1400E000BF00BFD3F800C009
:104450000CF1800C0CEBC11CCCF80000D3F800C0B0
:104460000CF1800C0CEBC11CCCF86850D3F800C0E8
:104470000CF1800C0CEBC11CCCF86460D3F800C0CC
:104480000CF1800C0CEBC11CCCF85470D3F800C0BC
:10449000CCF8A043BDE8F08100BFFEE710B50122D3
:1044A00011020A48FDF7BAFD012251020748FDF743
:1044B000B5FD00224FF400710448FDF7AFFD002266
:1044C0004FF480710148FDF7A9FD10BD00040048BC
:1044D00010B5012211020748FDF7A0FD00224FF49C
:1044E00000710448FDF79AFD012251020148FDF7D1
:1044F00095FD10BD0004004810B5012211020548C9
:10450000FDF78CFD00224FF480710248FDF786FD17
:1045100010BD00000004004800B589B000200690DE
:104520000790089018216846FBF725FF4FF0A04040
:104530002A4908604FF48030486000212748816094
:10454000012101614176002180F82010C162012122
:1045500081620021C1600321C161012180F8301016
:10456000042141610021017601214163FCF742FCF5
:1045700008B1FCF72EF90020069006A91748FCF7B1
:1045800089F908B1FCF725F9042000900120019079
:1045900000200390072002900020049005906946B7
:1045A0000E48FCF715FA08B1FCF713F90B20009040
:1045B0000220019069460948FCF70AFA08B1FCF7A5
:1045C00008F90D2000900320019069460348FCF78C
:1045D000FFF908B1FCF7FDF809B000BD4402002066
:1045E00000B587B0182101A8FBF7C5FE264827496A
:1045F00008600002486000212448816001210161B7
:104600004176002180F82010C162012181620021E1
:10461000C1600321C161012180F830100421416192
:104620000021017601214163FCF7E4FB08B1FCF7AE
:10463000D0F80D2001900120029000200490072066
:10464000039000200590069001A91048FCF7C0F9DE
:1046500008B1FCF7BEF80C2001900220029001A9DD
:104660000A48FCF7B5F908B1FCF7B3F8012001904E
:104670000320029001A90548FCF7AAF908B1FCF74C
:10468000A8F807B000BD000000010050940200200F
:1046900010B51048104908600320486000210E48FA
:1046A0008160C1604FF4C0210161C90041610021F6
:1046B000017601214176002181760121C176002118
:1046C000017701214177FDF785F908B1FCF781F801
:1046D00010BD000000640040B403002008B500BF16
:1046E0001248406940F0010010494861084640699D
:1046F00000F00100009000BF00BF002211460B2017
:10470000FEF7AEF80B20FEF79BF8002211460C20B6
:10471000FEF7A6F80C20FEF793F8002211461120B0
:10472000FEF79EF81120FEF78BF808BD001002403E
:1047300000B587B0142102A8FBF71DFE00BF2E486C
:10474000406940F480002C4948610846406900F403
:104750008000019000BF00BF00BF0846406940F4E0
:10476000003048610846406900F40030019000BF05
:1047700000BF00BF0846406940F4802048610846F9
:10478000406900F48020019000BF00BF00224FF478
:1047900058711A48FDF742FC6020029001200390F6
:1047A00000200490059002A91448FDF75FFB8020CB
:1047B000029000200390049002A91048FDF756FBD8
:1047C0004FF4807002900120039000200490032099
:1047D000059002A90948FDF749FB4FF400700290CB
:1047E00011200390002004900320059002A90348A3
:1047F000FDF73CFB07B000BD00100240000400487C
:1048000000B5ADB0002029902A902B902C90542117
:1048100014A8FBF7B0FD00201190129013902421F2
:1048200008A8FBF7A8FD20216846FBF7A4FD8148F6
:10483000814908600020486000217F488160FDF7C1
:104840008FFC08B1FBF7C5FF0C217B48FDF7F2FB9D
:1048500008B1FBF7BEFF0A217748FDF76BFD08B1F1
:10486000FBF7B7FF4FF43440299000202A902B909B
:1048700008202C9029AA05216F48FDF780FD08B17A
:10488000FBF7A7FF002014901590169017900120B9
:104890001890002019901A901B901C904FF0006007
:1048A0001D9000201E901F904FF00050209014AAE1
:1048B00005216148FDF704FF08B1FBF78AFF29AA2B
:1048C00000215D48FDF75BFD08B1FBF782FF00208A
:1048D000149015902190229023904FF48070249092
:1048E000002025902690102027900020289014AAC0
:1048F00000215148FDF7E4FE08B1FBF76AFF0020F4
:10490000259014AA03214C48FDF7DAFE08B1FBF705
:1049100060FF4FF6DF70119011AB01220021464875
:10492000FDF74AFD08B1FBF754FF002012901390E9
:1049300011AB022200214048FDF73EFD08B1FBF714
:1049400048FF11AB022203213B48FDF735FD08B1BA
:10495000FBF73FFF002008904FF49670099000206D
:104960000A900B900C904FF496700D9000200E90D2
:104970000F90109008AA00212F48FDF79BFB08B16B
:10498000FBF727FF4FF4806008904FF4AF70099059
:104990000D9008AA03212848FDF78CFB08B1FBF70E
:1049A00018FF0020009008200190102002900020A5
:1049B000039004900590069007906B460122002119
:1049C0001D48FDF713FE08B1FBF703FF6B464022BD
:1049D00003211948FDF70AFE08B1FBF7FAFE002093
:1049E000019002906B46022200211348FDF7FEFD64
:1049F00008B1FBF7EEFE6B46802203210E48FDF75F
:104A0000F5FD08B1FBF7E5FE29AA03210A48FDF7E9
:104A1000B6FC08B1FBF7DDFE11AB0122032106480D
:104A2000FDF7CAFC08B1FBF7D4FE0348FDF734FCE0
:104A30002DB000BD00740140DC03002010B5094812
:104A400009490860002048600C210748C160202106
:104A50008160002101614162FDF754FF08B1FBF75D
:104A6000B8FE10BD3C000140B804002000B587B07E
:104A70000020039004900590069000900190029011
:104A80004FF08040134908604720486000211148DA
:104A900081606421C1600021016180218161FFF793
:104AA00057F808B1FBF795FE4FF48050039003A927
:104AB0000848FFF7E7F808B1FBF78BFE00200090ED
:104AC000029069460348FEF7F9FF08B1FBF781FE43
:104AD00007B000BDEC04002010B50D480D4908607A
:104AE0004FF4E130486000210A488160C1600161F3
:104AF0000C21416100218161C161016200200549F1
:104B000048620846FFF727FA08B1FBF762FE10BDBE
:104B1000004400403805002000BFFEE700BFFEE76C
:104B200070B5002418E004F1B000002100F07AF81C
:104B30000021084600F076F80021102000F072F8FD
:104B4000002505E00121002000F06CF8681CC5B2CA
:104B5000802DF7DB601CC4B2082CE4DB70BD10B5FF
:104B6000C820FDF76FF90021AE2000F05BF80021AE
:104B7000402000F057F80021B02000F053F8002149
:104B8000C82000F04FF80021812000F04BF80021F0
:104B9000FF2000F047F80021A12000F043F8002199
:104BA000A62000F03FF80021A82000F03BF80021EB
:104BB0001F2000F037F80021D32000F033F8002147
:104BC000084600F02FF80021D52000F02BF8002136
:104BD000F02000F027F80021D92000F023F8002170
:104BE000222000F01FF80021DA2000F01BF800213D
:104BF000022000F017F80021DB2000F013F800215C
:104C0000492000F00FF800218D2000F00BF8002162
:104C1000142000F007F80021AF2000F003F8FFF7A0
:104C20007FFF10BD70B504460D461DB1E0B200F027
:104C30008DFB02E0E0B200F073FB70BD704770477F
:104C400010B500F027FDFDF795FD10BD00B597B03C
:104C500028210DA8FBF78FFB142108A8FBF78BFB7D
:104C60001C2101A8FBF787FB012008900020099078
:104C7000022108A8FEF71AF808B1FBF7AAFD0120E7
:104C80000D9000040E9000200F9001201190022042
:104C90001490C10315914FF4E01116910DA8FEF781
:104CA000DDF908B1FBF795FD0F200890022009906F
:104CB00000200A904FF480600B9000200C9002219D
:104CC00008A8FDF7F3FF08B1FBF783FD4FF4804020
:104CD00001908010079001A8FDF7E2FE08B1FBF7F4
:104CE00078FD17B000BD00000348006840F4700074
:104CF000014908607047000088ED00E010B5002110
:104D00002048C16100200CE01E4900EB4003CA6945
:104D1000603101EB430149880A441A49CA61411CC8
:104D2000C8B20A28F0DB1748C0690A21B0FBF1F0CD
:104D3000144908810846008900EE100AB8EE400ABE
:104D40009FED111AC0EE010A9FED101A9FED100A97
:104D500010EE810ADFED0F0A80EE201AF1EE410A13
:104D6000084690ED301A90ED360A00EE810A80ED8B
:104D70002A0A00F06BFE01F061FA0748FFF70BF812
:104D800010BD000048000020000080453333534030
:104D90003333D33F9A99993DEC04002010B5026853
:104DA0001E4B984205D0B0F1804F02D01C4B984268
:104DB00003D122F070024B681A43184B98420ED070
:104DC000B0F1804F0BD0164B984208D0154B98424B
:104DD00005D0154B984202D0144B984203D122F4CF
:104DE0004072CB681A4322F080034C6943EA040204
:104DF00002608B68C3620B688362084B984208D0DC
:104E0000084B984205D0084B984202D0074B984275
:104E100001D10B6903630123436110BD002C0140E4
:104E200000040040004001400044014000480140AF
:104E300030B50C46816821F47F4142EA03252543C1
:104E40002943816030BD0A46816821F0700142F03B
:104E5000070319438160704730B50B461446026A58
:104E6000056A25F001050562816921F0F00141EA3A
:104E7000041122F00A021A438161026230BD30B58A
:104E80000B461446056A25F0100505628169026A21
:104E900021F4704141EA043122F0A00242EA0312F7
:104EA0008161026230BD90F8241001F0010139B136
:104EB0000168496821F40031826A11430268516037
:104EC00090F8241001F00201022907D10168496815
:104ED00021F48031C26A11430268516090F82410B5
:104EE00001F00401042907D10168496821F48021F7
:104EF000026B11430268516090F8241001F0080120
:104F0000082907D10168496821F40041426B114327
:104F10000268516090F8241001F01001102907D1A7
:104F20000168896821F48051826B114302689160A5
:104F300090F8241001F02001202907D10168896828
:104F400021F40051C26B11430268916090F8241063
:104F500001F04001402913D10168496821F4801112
:104F6000026C114302685160016CB1F5801F07D1DA
:104F70000168496821F4C001426C11430268516024
:104F800090F8241001F08001802907D10168496858
:104F900021F40021826C114302685160704738B5DA
:104FA00004460020C4F88000FDF73EF8054620685E
:104FB000006800F0080008280CD16FF07E402B46F6
:104FC00000224FF400110090204600F0F9F808B1DB
:104FD000032038BD2068006800F0040004280CD1CC
:104FE0006FF07E402B4600224FF480010090204657
:104FF00000F0E6F808B10320EBE72020A067E067A7
:105000000020206600BF84F8740000BF00BFE0E706
:105010002DE9F04704464FF0000A2169A0680843D3
:1050200061690843E16940EA0108206800685E4957
:10503000084040EA0800216808602068406820F4C1
:105040004050E168084321684860D4F81880206A1D
:1050500040EA08082068806820F4306040EA0800D0
:105060002168886000BF51492068884216D15048A5
:10507000006B00F0030030B1012808D0022808D0EE
:10508000032808D101E0002607E0022605E00426F7
:1050900003E0082601E0102600BF0CE04549206827
:1050A000884201D1002606E043492068884201D1A8
:1050B000002600E0102600BFE069B0F5004F3AD1AD
:1050C000092E17D2DFE806F005090D160F16161681
:1050D0001300FDF747FF054610E0FDF759FF0546B1
:1050E0000CE0364D0AE0FDF769FF054606E04FF497
:1050F000004503E000254FF0010A00BF00BF8DB35B
:105100006800616800EB5100B0FBF1F087B2102F2E
:105110000ED3B7F5803F0BD24FF6F07007EA0009C7
:10512000C7F3420049EA00092068C0F80C9034E057
:105130004FF0010A31E0092E18D2DFE806F0050928
:105140000D170F1717171400FDF70CFF054611E098
:10515000FDF71EFF05460DE0184D0BE0FDF72EFF95
:10516000054607E019E04FF4004503E000254FF045
:10517000010A00BF00BF85B1606805EB500061689F
:10518000B0FBF1F087B2102F05D3B7F5803F02D204
:105190002068C76001E04FF0010A00206066A06649
:1051A0005046BDE8F0870000F369FFEF003801408A
:1051B00000100240004400400048004000127A0005
:1051C0002DE9F04104460D4617469846069E67E0D5
:1051D000701C002864D0FCF727FFA0EB0800B04249
:1051E00000D836BB00BF00BF216851E8001F21F482
:1051F000D070226842E800010029F5D100BF00BF4D
:1052000000BF2168083151E8001F21F0010021682A
:10521000083141E80002002AF3D100BF2020A06736
:10522000E06700BF002084F8740000BF0320BDE8E1
:10523000F0812068006800F0040080B32068C06935
:10524000C0F3C02058B34FF400602168086200BF6B
:1052500000BF216851E8001F21F4D070226842E8A5
:1052600000010029F5D100BF00BF00BF216808314F
:1052700051E8001F21F001002168083141E80002D7
:10528000002AF3D100BF2020A067E067C4F88000A7
:1052900000BF002084F8740000BF0320C7E7FFE7C9
:1052A0002068C0692840A84201D1012000E0002008
:1052B000B8428DD00020BAE700BFFEE72DE9F041EB
:1052C00005462C4600224FF480711448FCF7A6FED8
:1052D00000261FE0274607F08007802F05D1012216
:1052E00051020E48FCF79AFE05E000224FF40071CF
:1052F0000A48FCF793FE6006040E012211020748DB
:10530000FCF78CFE00224FF480710448FCF786FE07
:10531000701CC6B2082EDDDBBDE8F0810004004839
:1053200010B50446FFF7BAF87820FFF7C7FFFFF77C
:10533000E3F80020FFF7C2FFFFF7DEF82046FFF793
:10534000BDFFFFF7D9F8FFF7C3F810BD10B504464D
:10535000FFF7A4F87820FFF7B1FFFFF7CDF8402062
:10536000FFF7ACFFFFF7C8F82046FFF7A7FFFFF7EE
:10537000C3F8FFF7ADF810BD02480068C0F3022083
:10538000704700000CED00E010B5002804DB0A07B0
:10539000130E054A135406E00A07140E034A00F0E0
:1053A0000F031B1FD45410BD00E400E018ED00E013
:1053B00010B52DED068B8E48008800EE100AB8EE71
:1053C000400ADFED8C0A80EE201A9FED8B0A21EE59
:1053D000000AF2EE0E0A60EE200A854890ED2D1AC2
:1053E00090ED330A00EE810A80ED270AC08800EEB6
:1053F000100AB8EE400A9FED7F1AC0EE010A9FED39
:105400007E1A9FED7E0A10EE810A9FED7D1AC0EE96
:10541000010A774890ED2E1A90ED340A00EE810AC9
:1054200080ED280A408800EE100AF8EE400A9FED51
:10543000711A80EE810ADFED700A20EE200AF2EE8A
:105440000E0A60EE200A6A4890ED2F1A90ED350A98
:1054500000EE810A80ED290A408900EE100AF8EE7C
:10546000400A9FED641A80EE810ADFED630A20EEA8
:10547000200AF2EE0E0A60EE200A5D4890ED311A25
:1054800090ED370A00EE810A80ED2B0A808800EE4D
:10549000100AB8EE400A9FED571AC0EE010A9FEDC0
:1054A000561A9FED560A10EE810AB1EE400A9FEDA2
:1054B000551AC0EE010A4E4890ED321A90ED380AA6
:1054C00000EE810A80ED2C0A90ED290A10EE101AE8
:1054D000084601F085FB41EC1A0B9FED4B0B53EC9A
:1054E000102B01F03DF841EC190B9FED490B53ECEB
:1054F000102B01F08DF941EC180B00F057FF4649D5
:1055000008603B4890ED2A0A10EE101A084601F098
:1055100067FB41EC1A0B9FED410B53EC102B01F094
:1055200075FA41EC190B9FED3F0B53EC102B01F07A
:1055300017F841EC180B00F039FF3C4908600020D7
:1055400006E000222A490C3141F82020411CC8B253
:105550000428F6DB00212648016200202CE000210F
:1055600012E000EB4003224A243202EB430232F8FD
:1055700011301F4A0C3252F8212013441C4A0C32BD
:1055800042F821304A1CD1B20329EADB184900EB6A
:1055900040038A69603131F813100A4414498A6162
:1055A00000EB40030A6A603101EB430189880A4439
:1055B0000F490A62411CC8B20A28D0DB00200BE068
:1055C0000B490C3151F820100A22B1FBF2F1084AC4
:1055D00022F81010411CC8B20428F1DB0448006A0C
:1055E0000A21B0FBF1F002494881BDEC068B10BDE9
:1055F0004800002000008045333353403333D33F0D
:105600009A99993DB6F37D3D1D5A643BDF4FD53FD6
:10561000000000000000144020020020666666665C
:105620006666FA3F333333333333B33F240200200B
:1056300010B51348D0ED290AB0EE600A114948426E
:105640009FED111AF3EE0E0A00F0C2FD0F4908801B
:105650000B48D0ED2A0AB0EE600A0A494842BBEE78
:10566000041AF3EE040A00F0B3FD08494880084824
:10567000008800B288803020FAF7EAFF10BD0000F1
:10568000480000200083FFFF0000000028000020E9
:105690002C01002010B50C4801780078401C0A4A03
:1056A0001070142906DB00201146087000F084FAFF
:1056B000FFF7BEFFFFF77CFE00F008F800F0A0FB4C
:1056C00000F050FC10BD000038020020D74890F8D0
:1056D000480070B9DFEDD61AD448C0ED0A1ADFEDE4
:1056E000D41AC0ED0B1A0020D2490870D2490880A4
:1056F0007047CE4890F84800012842D1CD48007844
:1057000001283EDCCC480088B0F5FA7F25DACB488A
:10571000D0ED2A1AF5EEC01AF1EE10FA02DDD0ED46
:105720002A1A04E0C548D0ED2A1AF1EE611AB0EE4B
:10573000042AF4EEC21AF1EE10FA04D2BE48008830
:10574000401CBD490880DFEDBA1AB848C0ED0B1AFD
:10575000DFEDB71AC0ED0A1ACAE7B7480088B0F5FE
:105760007A7F08DA0120B3490870B3480088401CEA
:10577000B149088005E00220AE4908700020AE491A
:105780000880AF48D0ED0B1AA848C0ED001AAB480E
:10579000D0ED271A90ED282A61EE821AA348C0EDB9
:1057A000011AD0ED001A90ED012A71EEC21AC0ED77
:1057B000021AD0ED0A1A90ED022A71EE821AC0ED9B
:1057C0000A1AD0ED0A1A90ED0D2AF4EEC21AF1EE83
:1057D00010FA04DDD0ED0D1AC0ED0A1A0DE0934861
:1057E000D0ED0A1A90ED0E2AF4EEC21AF1EE10FA7C
:1057F00003D2D0ED0E1AC0ED0A1A8C48D0ED041A6F
:1058000090ED022A61EE821AC0ED071AD0ED051A5A
:1058100090ED0A2A61EE821AC0ED081AD0ED021A44
:1058200090ED032A71EEC21A90ED062A61EE821AFB
:10583000C0ED091AD0ED071A90ED082A71EE821A10
:1058400090ED092A31EE820A7E48C08801EE900A66
:10585000F8EE611A794890ED292AC1EE822A734840
:10586000D0ED101AF4EEE12AF1EE10FA02DDD0EDDF
:10587000101A0AE07348C08801EE900AB8EE612A57
:105880006E48D0ED292AC2EE221AF0EE610A6D4868
:10589000B0F90400404201EE900AF8EEE11A6748C0
:1058A00090ED292AC1EE822A6048D0ED111AF4EE5B
:1058B000E12AF1EE10FA02D2D0ED111A0CE06148A3
:1058C000B0F90400404201EE900AB8EEE12A5B48CC
:1058D000D0ED292AC2EE221AB0EE611AB4EEE00A27
:1058E000F1EE10FA03DD5148C0ED0B0A0BE0B4EE07
:1058F000C10AF1EE10FA03D24C4880ED0B1A02E017
:105900004A4880ED0B0A4B48007801281AD14A48D2
:105910000088A0F5FA7001EE900AF8EEE11ADFEDCA
:105920004A2A81EEA22A4148D0ED0B1A4348D0ED15
:105930002A2A71EEE22AD0ED2A1A42EE821A3B4858
:10594000C0ED0B1A3D48D0ED291AB1EE062AF4EE4F
:10595000C21AF1EE10FA2CD23448D0ED0B1AF5EE43
:10596000C01AF1EE10FA24D290ED0B2A3348D0ED94
:10597000291AF0EE0C2A71EEE21AF6EE002A61EE18
:10598000A21AF5EEC01AF1EE10FA0ADDD0ED291ACE
:10599000F0EE0C2A71EEE21AF6EE002A61EEA21A7F
:1059A00001E0DFED231A62EE211A2048C0ED0B1A48
:1059B00035E02248D0ED291AB3EE062AF4EEC21AD9
:1059C000F1EE10FA2BDD1948D0ED0B1AF5EEC01AE6
:1059D000F1EE10FA23DD90ED0B2A1848D0ED291ACC
:1059E000F3EE082A72EEE11AF6EE002A61EEA21A30
:1059F000F5EEC01AF1EE10FA0ADDD0ED291AF3EE39
:105A0000082A72EEE11AF6EE002A61EEA21A01E00F
:105A1000DFED071A62EE211A0448C0ED0B1A0348A5
:105A2000D0ED021AC0ED031A00BF61E6800100202C
:105A300000000000280200202A0200204800002068
:105A4000D0010020000600200000FA4310B52DED23
:105A5000028B534890F8480090B9524890ED270ABD
:105A60004F48D0ED050A20EE200A4E48D0ED290A15
:105A700080EE801A4A4880ED0A1ABDEC028B10BDF8
:105A800049480078012805D1484890ED0B0A444860
:105A900080ED000A434890ED2A0A414880ED010A52
:105AA00090ED000AD0ED010A30EE600A80ED020AA6
:105AB00090ED0A0AD0ED020A30EE200A80ED0A0AC3
:105AC00090ED0A0AD0ED0D0AB4EEE00AF1EE10FAFC
:105AD00004DD90ED0D0A80ED0A0A0DE0304890EDEE
